{
  "contracts/CustomErrors.sol": {
    "CustomErrors": {
      "abi": [
        {
          "inputs": [],
          "name": "FirstError",
          "type": "error"
        },
        {
          "inputs": [],
          "name": "SecondError",
          "type": "error"
        },
        {
          "inputs": [],
          "name": "justRevert",
          "outputs": [],
          "stateMutability": "pure",
          "type": "function"
        },
        {
          "inputs": [],
          "name": "throwFirstError",
          "outputs": [],
          "stateMutability": "pure",
          "type": "function"
        },
        {
          "inputs": [],
          "name": "throwSecondError",
          "outputs": [],
          "stateMutability": "pure",
          "type": "function"
        }
      ],
      "evm": {
        "bytecode": {
          "linkReferences": {},
          "object": "608060405234801561001057600080fd5b506101b6806100206000396000f3fe608060405234801561001057600080fd5b50600436106100415760003560e01c80634d3af0581461004657806350b23fd214610050578063516170541461005a575b600080fd5b61004e610064565b005b610058610096565b005b6100626100d1565b005b6040517f4b22a41500000000000000000000000000000000000000000000000000000000815260040160405180910390fd5b6040517f08c379a00000000000000000000000000000000000000000000000000000000081526004016100c890610126565b60405180910390fd5b6040517fd6ea78d900000000000000000000000000000000000000000000000000000000815260040160405180910390fd5b6000610110600d83610146565b915061011b82610157565b602082019050919050565b6000602082019050818103600083015261013f81610103565b9050919050565b600082825260208201905092915050565b7f72657665727420737472696e670000000000000000000000000000000000000060008201525056fea2646970667358221220dae3981d1a27b0b368d70ea77d12a3d1b0ff4392b3ed8b3d2ab1abcf9dc702f464736f6c63430008070033",
          "opcodes": "PUSH1 0x80 PUSH1 0x40 MSTORE CALLVALUE DUP1 ISZERO PUSH2 0x10 JUMPI PUSH1 0x0 DUP1 REVERT JUMPDEST POP PUSH2 0x1B6 DUP1 PUSH2 0x20 PUSH1 0x0 CODECOPY PUSH1 0x0 RETURN INVALID PUSH1 0x80 PUSH1 0x40 MSTORE CALLVALUE DUP1 ISZERO PUSH2 0x10 JUMPI PUSH1 0x0 DUP1 REVERT JUMPDEST POP PUSH1 0x4 CALLDATASIZE LT PUSH2 0x41 JUMPI PUSH1 0x0 CALLDATALOAD PUSH1 0xE0 SHR DUP1 PUSH4 0x4D3AF058 EQ PUSH2 0x46 JUMPI DUP1 PUSH4 0x50B23FD2 EQ PUSH2 0x50 JUMPI DUP1 PUSH4 0x51617054 EQ PUSH2 0x5A JUMPI JUMPDEST PUSH1 0x0 DUP1 REVERT JUMPDEST PUSH2 0x4E PUSH2 0x64 JUMP JUMPDEST STOP JUMPDEST PUSH2 0x58 PUSH2 0x96 JUMP JUMPDEST STOP JUMPDEST PUSH2 0x62 PUSH2 0xD1 JUMP JUMPDEST STOP JUMPDEST PUSH1 0x40 MLOAD PUSH32 0x4B22A41500000000000000000000000000000000000000000000000000000000 DUP2 MSTORE PUSH1 0x4 ADD PUSH1 0x40 MLOAD DUP1 SWAP2 SUB SWAP1 REVERT JUMPDEST PUSH1 0x40 MLOAD PUSH32 0x8C379A000000000000000000000000000000000000000000000000000000000 DUP2 MSTORE PUSH1 0x4 ADD PUSH2 0xC8 SWAP1 PUSH2 0x126 JUMP JUMPDEST PUSH1 0x40 MLOAD DUP1 SWAP2 SUB SWAP1 REVERT JUMPDEST PUSH1 0x40 MLOAD PUSH32 0xD6EA78D900000000000000000000000000000000000000000000000000000000 DUP2 MSTORE PUSH1 0x4 ADD PUSH1 0x40 MLOAD DUP1 SWAP2 SUB SWAP1 REVERT JUMPDEST PUSH1 0x0 PUSH2 0x110 PUSH1 0xD DUP4 PUSH2 0x146 JUMP JUMPDEST SWAP2 POP PUSH2 0x11B DUP3 PUSH2 0x157 JUMP JUMPDEST PUSH1 0x20 DUP3 ADD SWAP1 POP SWAP2 SWAP1 POP JUMP JUMPDEST PUSH1 0x0 PUSH1 0x20 DUP3 ADD SWAP1 POP DUP2 DUP2 SUB PUSH1 0x0 DUP4 ADD MSTORE PUSH2 0x13F DUP2 PUSH2 0x103 JUMP JUMPDEST SWAP1 POP SWAP2 SWAP1 POP JUMP JUMPDEST PUSH1 0x0 DUP3 DUP3 MSTORE PUSH1 0x20 DUP3 ADD SWAP1 POP SWAP3 SWAP2 POP POP JUMP JUMPDEST PUSH32 0x72657665727420737472696E6700000000000000000000000000000000000000 PUSH1 0x0 DUP3 ADD MSTORE POP JUMP INVALID LOG2 PUSH5 0x6970667358 0x22 SLT KECCAK256 0xDA 0xE3 SWAP9 SAR BYTE 0x27 0xB0 0xB3 PUSH9 0xD70EA77D12A3D1B0FF NUMBER SWAP3 0xB3 0xED DUP12 RETURNDATASIZE 0x2A 0xB1 0xAB 0xCF SWAP14 0xC7 MUL DELEGATECALL PUSH5 0x736F6C6343 STOP ADDMOD SMOD STOP CALLER "
        },
        "methodIdentifiers": {
          "justRevert()": "50b23fd2",
          "throwFirstError()": "4d3af058",
          "throwSecondError()": "51617054"
        }
      }
    }
  }
}