{
  "_format": "hh-sol-artifact-1",
  "contractName": "CustomErrors",
  "sourceName": "contracts/CustomErrors.sol",
  "abi": [
    {
      "inputs": [],
      "name": "FirstError",
      "type": "error"
    },
    {
      "inputs": [],
      "name": "SecondError",
      "type": "error"
    },
    {
      "inputs": [],
      "name": "justRevert",
      "outputs": [],
      "stateMutability": "pure",
      "type": "function"
    },
    {
      "inputs": [],
      "name": "throwFirstError",
      "outputs": [],
      "stateMutability": "pure",
      "type": "function"
    },
    {
      "inputs": [],
      "name": "throwSecondError",
      "outputs": [],
      "stateMutability": "pure",
      "type": "function"
    }
  ],
  "bytecode": "0x608060405234801561001057600080fd5b506101b6806100206000396000f3fe608060405234801561001057600080fd5b50600436106100415760003560e01c80634d3af0581461004657806350b23fd214610050578063516170541461005a575b600080fd5b61004e610064565b005b610058610096565b005b6100626100d1565b005b6040517f4b22a41500000000000000000000000000000000000000000000000000000000815260040160405180910390fd5b6040517f08c379a00000000000000000000000000000000000000000000000000000000081526004016100c890610126565b60405180910390fd5b6040517fd6ea78d900000000000000000000000000000000000000000000000000000000815260040160405180910390fd5b6000610110600d83610146565b915061011b82610157565b602082019050919050565b6000602082019050818103600083015261013f81610103565b9050919050565b600082825260208201905092915050565b7f72657665727420737472696e670000000000000000000000000000000000000060008201525056fea2646970667358221220dae3981d1a27b0b368d70ea77d12a3d1b0ff4392b3ed8b3d2ab1abcf9dc702f464736f6c63430008070033",
  "linkReferences": {},
  "deployedLinkReferences": {}
}